:100000000C9462000C94B50A0C948E0A0C948A002D
:100010000C948A000C948A000C94DC0A0C948A00DC
:100020000C948A000C948A000C948A000C94F30AB5
:100030000C948A000C948A000C948A000C948A0018
:100040000C94440A0C948A000C94120A0C94EC0947
:100050000C948A000C948A000C948A000C948A00F8
:100060000C948A000C948A000000000024002700F1
:100070002A0000000000250028002B0000000008D6
:10008000000201000003040700000000000000005F
:1000900000000000230026002900040404040404D6
:1000A0000404020202020202030303030303010227
:1000B00004081020408001020408102001020408F6
:1000C0001020350C11241FBECFEFD8E0DEBFCDBF0E
:1000D00011E0A0E0B1E0ECE1F7E202C005900D9282
:1000E000AA3BB107D9F723E0AAEBB1E001C01D920A
:1000F000A931B207E1F710E0C2E6D0E004C02197D1
:10010000FE010E945312C136D107C9F70E94D90CD3
:100110000C948C130C940000EBECF1E0A089B189F5
:1001200082E08C93A485B5851C92A685B78580E175
:100130008C93108EA489B58986E08C93A289B389AB
:100140008C9180618C93A289B3898C9188608C9307
:10015000A289B3898C9180688C930288F389E02D01
:1001600080818F7D80830895CF92DF92EF92FF92FE
:10017000CF93DF93B0910903A0E08111AB2F809161
:100180000A0390E0880F991FAC0140575F4FC09061
:100190000F03D0901003E0901103F090120330E0B1
:1001A00020E0FA01C591D491E881B90190E080E0A6
:1001B000EB23EA130AC02F5F3F4F6C157D058E05B8
:1001C0009F0578F36FEF7FEFCB01DF91CF91FF9029
:1001D000EF90DF90CF900895AF92BF92CF92DF92D1
:1001E000EF92FF920F931F93CF93DF936C017B01EC
:1001F0008B01040F151FEB015E01AE18BF08C0177D
:10020000D10759F06991D601ED91FC910190F081EF
:10021000E02DC6010995892B79F7C501DF91CF91B2
:100220001F910F91FF90EF90DF90CF90BF90AF9014
:100230000895FC01538D448D252F30E0842F90E0EC
:10024000821B930B541710F0CF96089501970895D1
:10025000FC01918D828D981761F0A28DAE0FBF2F9A
:10026000B11D5D968C91928D9F5F9F73928F90E0F0
:1002700008958FEF9FEF0895FC01918D828D98175F
:1002800031F0828DE80FF11D858D90E008958FEF9C
:100290009FEF0895FC01918D228D892F90E0805C65
:1002A0009F4F821B91098F73992708958BEC91E0E2
:1002B0000E944A0121E0892B09F420E0822F089551
:1002C00080E090E0892B29F00E94560181110C9466
:1002D00000000895FC01A48DA80FB92FB11DA35AE9
:1002E000BF4F2C91848D90E001968F739927848F56
:1002F000A689B7892C93A089B1898C918370806479
:100300008C93938D848D981306C00288F389E02D19
:1003100080818F7D80830895EF92FF920F931F93CA
:10032000CF93DF93EC0181E0888F9B8D8C8D9813A8
:100330001AC0E889F989808185FF15C09FB7F894B4
:10034000EE89FF896083E889F98980818370806400
:1003500080839FBF81E090E0DF91CF911F910F914B
:10036000FF90EF900895F62E0B8D10E00F5F1F4F5A
:100370000F731127E02E8C8D8E110CC00FB607FC69
:10038000FACFE889F989808185FFF5CFCE010E94F7
:100390006A01F1CFEB8DEC0FFD2FF11DE35AFF4FFA
:1003A000F0829FB7F8940B8FEA89FB898081806285
:1003B000CFCFCF93DF93EC01888D8823B9F0AA8942
:1003C000BB89E889F9898C9185FD03C0808186FD10
:1003D0000DC00FB607FCF7CF8C9185FFF2CF80815F
:1003E00085FFEDCFCE010E946A01E9CFDF91CF9169
:1003F0000895833081F028F4813099F08230A9F09B
:1004000008958730A9F08830C9F08430B1F4809124
:1004100080008F7D03C0809180008F778093800063
:10042000089584B58F7784BD089584B58F7DFBCF03
:100430008091B0008F778093B00008958091B000D4
:100440008F7DF9CF1F93CF93DF93282F30E0F901F1
:10045000E458FF4F8491F901E255FF4FD491F9011F
:10046000E656FF4FC491CC23A9F0162F81110E94AC
:10047000F901EC2FF0E0EE0FFF1FEE58FF4FA591B2
:10048000B4918FB7F894EC91111108C0D095DE2388
:10049000DC938FBFDF91CF911F910895DE2BF8CFB2
:1004A000CF93DF9390E0FC01E255FF4F24918656F5
:1004B0009F4FFC0184918823D1F090E0880F991F11
:1004C000FC01E859FF4FA591B491FC01EE58FF4F94
:1004D000C591D491623071F49FB7F8943C91822F0A
:1004E000809583238C93E8812E2B28839FBFDF91F7
:1004F000CF9108958FB7F894EC912E2B2C938FBF4A
:10050000F6CF3FB7F8948091C3019091C401A091B8
:10051000C501B091C60126B5A89B05C02F3F19F0B3
:100520000196A11DB11D3FBFBA2FA92F982F882773
:10053000BC01CD01620F711D811D911D42E0660F4E
:10054000771F881F991F4A95D1F708958F929F9220
:10055000AF92BF92CF92DF92EF92FF926B017C013C
:100560000E9481024B015C01C114D104E104F10439
:10057000B9F00E948102681979098A099B09683ECD
:1005800073408105910580F321E0C21AD108E1088A
:10059000F10888EE880E83E0981EA11CB11CE4CF00
:1005A000FF90EF90DF90CF90BF90AF909F908F9093
:1005B00008952FB7F8946091BF017091C0018091A8
:1005C000C1019091C2012FBF0895CF92DF92EF92A7
:1005D000FF920F931F93CF93DF93CDB7DEB7C05435
:1005E000D1400FB6F894DEBF0FBECDBF0E94D90236
:1005F00000910B0310910C0320910D0330910E0319
:100600006B017C01C01AD10AE20AF30A9701860144
:10061000003D17402105310590F480911303C05C23
:10062000DE4F0FB6F894DEBF0FBECDBFDF91CF9186
:100630001F910F91FF90EF90DF90CF9008956093FE
:100640000B0370930C0380930D0390930E03109291
:1006500006031092050310920403109203031092F4
:10066000020362E0809107030E94500261E070E0A3
:1006700080E090E00E94A60261E0809107030E9462
:10068000500260E0809107030E94220280910803DB
:100690008551823020F58BE291E10197F1F762E01C
:1006A000809107030E9450028091140390E08230F1
:1006B000910538F0880F991F880F991F05970197AA
:1006C000F1F7F89480E00E94B4006F3F7F4F8F4FA6
:1006D0009F4F61F410921303789480E0A0CF64E1FF
:1006E00070E080E090E00E94A602D9CF81E00E94F5
:1006F000B4006F3F7F4F8F4F9F4F61F38E010F5FAD
:100700001F4F6E012FEBC21A2EEFD20A780180E044
:100710000E94B400F701608371838283938381E038
:100720000E94B400F7016483758386839783F8E0A1
:10073000EF0EF11CEC14FD0451F7789430E020E04A
:10074000F801C080D180E280F380448155816681C8
:100750007781FFEFCF16DF06EF06FF0631F04F3F40
:100760008FEF58076807780719F410921303B5CF75
:10077000F90183E0F595E7958A95E1F7EE5FFC4F87
:100780008081880FC416D506E606F70610F180832F
:100790002F5F3F4F085F1F4F2832310589F6409188
:1007A00006032091020380910303280F3327331F90
:1007B00080910403280F311D80910503820F932F30
:1007C000911D99274817190681F681E0809313033C
:1007D00026CF8160DCCF089508958CE10895CF93F2
:1007E000DF93FC01228133812230310569F0EC0175
:1007F000678D858D0E94220260E08C8D0E9422020E
:1008000082E090E09B838A83DF91CF910895FF92ED
:100810000F931F93CF93DF93EC01162FF42E0FB796
:10082000F894898D9A8DDC01ED91FC910088F18915
:10083000E02D099560E08B8D0E942202898D9A8DB2
:10084000DC01ED91FC910190F081E02D612F099583
:10085000182F898D9A8DDC01ED91FC910190F0812A
:10086000E02D6F2D099561E08B8D0E942202898D0C
:100870009A8DDC01ED91FC910288F389E02D0995B8
:100880000FBF812FDF91CF911F910F91FF9008959E
:1008900060620C940704CF93DF93FC0122813381C3
:1008A0002130310581F0EC0140E060E00E94480415
:1008B00060E08D8D0E94220281E090E09B838A831C
:1008C000DF91CF91089580E0FBCFCF93DF93FC01C0
:1008D000228133812230310569F0EC01448D60E0E2
:1008E0000E94480460E08D8D0E94220282E090E028
:1008F0009B838A83DF91CF9108950F931F93CF93AA
:10090000DF93EC01162F0FB7F894898D9A8DDC01D7
:10091000ED91FC910088F189E02D099560E08B8DC7
:100920000E942202898D9A8DDC01ED91FC9101904B
:10093000F081E02D612F0995898D9A8DDC01ED9173
:10094000FC910190F081E02D60E00995182F61E0A5
:100950008B8D0E942202898D9A8DDC01ED91FC9194
:100960000288F389E02D09950FBF812FDF91CF9188
:100970001F910F9108950F931F93CF93DF93EC0175
:10098000162F0FB7F894898D9A8DDC01ED91FC91AB
:100990000088F189E02D099560E08B8D0E9422028C
:1009A000898D9A8DDC01ED91FC910190F081E02D13
:1009B000612F0995182F61E08B8D0E942202898D8D
:1009C0009A8DDC01ED91FC910288F389E02D099567
:1009D0000FBF812FDF91CF911F910F910895DF926B
:1009E000EF92FF920F931F93CF93DF93EC010FAD24
:1009F000011198C08A819B81039741F18A819B8173
:100A0000049771F04C8D436060E0CE010E94480471
:100A100061E08D8D0E94220284E090E09B838A83B6
:100A200067E1CE010E947D0480FD10C060E6CE012A
:100A30000E947D04182F813290F062EECE010E9458
:100A4000BB041FAE1E8ECE010E946504802FDF9175
:100A5000CF911F910F91FF90EF90DF90089540E4A8
:100A600067E0CE010E944804DFB6F894898D9A8D24
:100A7000DC01ED91FC910088F189E02D099560E0A1
:100A80008B8D0E942202898D9A8DDC01ED91FC9163
:100A90000190F081E02D61E609957E01BFE1EB0E4A
:100AA000F11C012F015070F0898D9A8DDC01ED91C0
:100AB000FC910190F081E02D60E00995F7018193B0
:100AC0007F01F0CF61E08B8D0E942202898D9A8D8B
:100AD000DC01ED91FC910288F389E02D0995DFBEE0
:100AE0001E8F1430C8F08F8D8E8388A18F8389A1CB
:100AF00088878AA189878D81811107C09E818C8119
:100B0000981719F08E818F3F39F48A899B89019655
:100B10009B8B8A8B81E08FAF8FAD882319F0CE013C
:100B20000E9465040FAD92CFCF92DF92EF92FF92B9
:100B30001F93CF93DF93FC01228133812330310552
:100B400081F5EC010E94D9026B017C016FEFCE01AF
:100B50000E94BB04182F807359F40E94D9026C19AB
:100B60007D098E099F09653671058105910570F330
:100B700014FF04C061EECE010E94BB04CE010E94AE
:100B8000650440E367E0CE010E94480415FB882716
:100B900080F9DF91CF911F91FF90EF90DF90CF9080
:100BA000089580E0F6CFCF93DF93EC01898D9A8D85
:100BB000DC01ED91FC910680F781E02D099561E063
:100BC0008B8D0E94500261E08B8D0E94220264E6B0
:100BD00070E080E090E00E94A60281E0DF91CF917A
:100BE00008951F93CF93DF93EC016FE070E080E0F6
:100BF00090E00E94A602898D9A8DDC01ED91FC9116
:100C00000684F785E02D62E070E00995898D9A8D64
:100C1000DC01ED91FC910284F385E02D70E060E051
:100C20000995898D9A8DDC01ED91FC910484F585FF
:100C3000E02D70E060E00995CE010E94D305182FE9
:100C4000811106C010E0812FDF91CF911F9108958F
:100C500061E08D8D0E94500260E08D8D0E94220225
:100C600040E767E0CE010E9448044FE36CE1CE010B
:100C70000E94480445E06DE1CE010E9448046DE108
:100C8000CE010E947D048530C1F41FAE1E8ECE01C0
:100C90000E94650461EECE010E94BB0462EECE01AB
:100CA0000E94BB0442E065E0CE010E9448044FE090
:100CB00066E0CE010E944804C6CF43E760E5CE015E
:100CC0000E94070445E06DE1CE010E9448046DE1F9
:100CD000CE010E947D04853009F0B4CFD6CF2FB766
:100CE000F89491E0662339F092E0613021F082E0DF
:100CF0008093BD0190E08091BC01892B8093BC0161
:100D00008091BD01811103C081E08093BD012FBF9F
:100D100008958091BD01882361F09FB7F8942091D8
:100D2000BD018091BB01213019F48DBB9FBF089597
:100D30008FBF0895FC01308521858091BD018823F6
:100D400081F09FB7F8948091BD01813069F48DB333
:100D50008093BB014DB38091BC01809584238DBBF2
:100D60009FBF3CBD2DBD08959093BB01FACF9FB7A7
:100D7000F8948091BA01882319F081508093BA01C8
:100D80008091BA01811105C08CB58F7B8CBD10920A
:100D9000BD019FBF08958CB58F778CBD08958CB52C
:100DA00080688CBD08956EBD00000DB407FEFDCFB8
:100DB0008EB50895FC01738362830895FC017783E7
:100DC00066830895FC0175836483089508950895EA
:100DD000FC01848995890895FC018289938908958D
:100DE000FC0180899189089580E00895FC01738356
:100DF00062830895FC01828193810895FC018685B8
:100E000097850895FC0181850895FC0180850895EA
:100E1000FC0187810895FC01868108954095FC01BD
:100E200025854223642B65870895FC016487089516
:100E3000FC0163870895FC0162870895FC016483C7
:100E40000895FC01658308958F929F92AF92BF929F
:100E5000CF92DF92EF92FF92CF93DF93EC016B0181
:100E60000E94D9024B015C01F12CE12C0E94D902B5
:100E7000681979098A099B096C157D058E059F05FE
:100E800080F48A819B81039789F381E0DF91CF9180
:100E9000FF90EF90DF90CF90BF90AF909F908F909A
:100EA000089580E0F3CFFC012281338123303105A6
:100EB000D1F381E008958F929F92AF92BF92CF922B
:100EC000DF92EF92FF92CF93DF93EC016B010E94D0
:100ED000D9024B015C01F12CE12C0E94D902681966
:100EE00079098A099B096C157D058E059F05A0F47B
:100EF000E881F9810680F781E02DCE0109958823EC
:100F000061F3DF91CF91FF90EF90DF90CF90BF9092
:100F1000AF909F908F90089580E0F3CFCF93DF93B1
:100F2000EC01E881F9810680F781E02DCE01099579
:100F30008823B9F3DF91CF91089581E00895FC01F2
:100F400001900020E9F73197AF01481B590BBC0114
:100F50008BEC91E00C94EC008F929F92AF92BF9239
:100F60000F931F93CF93DF93CDB7DEB7A1970FB643
:100F7000F894DEBF0FBECDBF19A2423008F44AE09C
:100F80008E010F5D1F4F842E912CB12CA12CA50139
:100F900094010E944D11E62FB901CA01EA30F4F420
:100FA000E05DD801EE938D01232B242B252B79F7BF
:100FB00090E080E0109719F0CD010E949F07A19664
:100FC0000FB6F894DEBF0FBECDBFDF91CF911F915A
:100FD0000F91BF90AF909F908F900895E95CE1CF03
:100FE000EF92FF920F931F93CF93DF9300D000D027
:100FF000CDB7DEB78BEC91E00E9428018BEC91E03D
:101000000E9428018E010F5F1F4F78018A3341F043
:10101000F80181938F018BEC91E00E942801F6CFBB
:10102000C7010E942C10182F8BEC91E00E94280120
:101030008053990B8230910520F4682F812F0E94F4
:1010400022028BEC91E00E9428018A3011F08D3051
:10105000C1F78BEC91E00E943C018A3021F48BECCB
:1010600091E00E9428010F900F900F900F90DF9158
:10107000CF911F910F91FF90EF9008950E947E13E2
:101080000C94F512DF92EF92FF920F931F93CF9380
:10109000DF93EC017B018A01E881F9810680F78109
:1010A000E02D0995D82E8823E1F0E114F104B9F080
:1010B00001151105A1F08E8D482F4350550BF801F5
:1010C00090819417150614F084508083F8014081B4
:1010D00050E0BE016D5D7F4FC7010E9483131FAEBC
:1010E0001E8E8D2DDF91CF911F910F91FF90EF906C
:1010F000DF900895DF92EF92FF920F931F93CF93AB
:10110000DF934D3150F000E0802FDF91CF911F91A0
:101110000F91FF90EF90DF900895142F7B01EC0169
:10112000E881F9810688F789E02D0995082F882341
:1011300051F38A858F8F8B8588A38C8589A38D85B4
:101140008AA3412F50E0B701CE0183960E948313FA
:101150001C5FDFB6F894898D9A8DDC01ED91FC91CE
:101160000088F189E02D099560E08B8D0E942202B4
:10117000898D9A8DDC01ED91FC910190F081E02D3B
:1011800060EB09957E01BFE1EB0EF11C115068F098
:10119000898D9A8DF70161917F01DC01ED91FC91C0
:1011A0000190F081E02D0995F1CF61E08B8D0E94D7
:1011B0002202898D9A8DDC01ED91FC910288F389E0
:1011C000E02D0995DFBE8A819B810397B9F060E02D
:1011D0008D8D0E94220240E367E0CE010E94480408
:1011E0004C8D426060E0CE010E94480461E08D8D2C
:1011F0000E94220283E090E09B838A838C899D89F0
:1012000001969D8B8C8B80CF0F931F93CF93FC0106
:101210008281938140E054E264EF70E08430910574
:10122000C1F040E052E16AE770E08330910589F057
:1012300040E059E06DE370E08230910551F040E408
:1012400052E46FE070E0019721F440E854E86EE169
:1012500070E0A481B58186819781009709F466C00A
:101260008130910509F45EC08230910509F45CC0BB
:10127000039709F05BC08CE000E012E12AE730E060
:1012800090E0401751076207730740F436952795A1
:10129000179507959F5F9630A1F797E021E02927E2
:1012A00030E5119709F430E72695282B232B20876A
:1012B000909591709187CFB7F8948091BA01811180
:1012C00027C0E4EAF0E08491E8EBF0E09491E82FA5
:1012D000F0E0EE0FFF1FE859FF4FA591B491EC919C
:1012E000E92321F461E08AE00E94220261E08AE0C1
:1012F0000E9450028CB580618CBD8CB580648CBD21
:1013000061E08DE00E94500261E08BE00E9450029B
:101310008091BA018F5F8093BA01CFBFCF911F91A7
:101320000F91089584E0A8CF88E0A6CF80E0A4CFF5
:101330008F929F92AF92BF92CF92DF92EF92FF92E5
:10134000CF93DF93FC012789308D232BB9F1EC017A
:101350000E94D9024B015C0189E0C82ED12CE12CFE
:10136000F12CE881F981008CF18DE02DCE010995F9
:10137000882321F10E94D902AB01BC014819590907
:101380006A097B098F89988DB0E0A0E084179507E2
:10139000A607B707F8F00E94D40FA70196010E9494
:1013A0006F119B01AC012F5F3F4F4F4F5F4FA4E682
:1013B000B0E00E948E110E94A602D3CF81E0DF919F
:1013C000CF91FF90EF90DF90CF90BF90AF909F9024
:1013D0008F90089580E0F3CF1F920F920FB60F9277
:1013E00011242F933F934F935F936F937F938F932A
:1013F0009F93AF93BF93EF93FF938BEC91E00E9489
:101400006A01FF91EF91BF91AF919F918F917F9171
:101410006F915F914F913F912F910F900FBE0F9061
:101420001F9018951F920F920FB60F9211242F93B1
:101430008F939F93EF93FF93E091DB01F091DC0199
:101440008081E091E101F091E20182FD1BC0908179
:101450008091E4018F5F8F732091E501821741F045
:10146000E091E401F0E0E553FE4F958F8093E401B5
:10147000FF91EF919F918F912F910F900FBE0F9041
:101480001F9018958081F4CF1F920F920FB60F9284
:1014900011242F933F938F939F93AF93BF9380918A
:1014A000BF019091C001A091C101B091C2013091E2
:1014B000BE0123E0230F2D3758F50196A11DB11D64
:1014C0002093BE018093BF019093C001A093C101FE
:1014D000B093C2018091C3019091C401A091C50154
:1014E000B091C6010196A11DB11D8093C3019093D7
:1014F000C401A093C501B093C601BF91AF919F9164
:101500008F913F912F910F900FBE0F901F901895C4
:1015100026E8230F0296A11DB11DD2CF1F920F9274
:101520000FB60F9211242F933F934F935F936F93B6
:101530007F938F939F93AF93BF93EF93FF93E0912C
:101540000201F09103010995FF91EF91BF91AF91D5
:101550009F918F917F916F915F914F913F912F91CB
:101560000F900FBE0F901F9018951F920F920FB6FD
:101570000F9211242F933F934F935F936F937F9319
:101580008F939F93AF93BF93EF93FF93E0910001ED
:10159000F09101010995FF91EF91BF91AF919F915A
:1015A0008F917F916F915F914F913F912F910F900C
:1015B0000FBE0F901F9018951F920F920FB60F92AB
:1015C00011248F930FB6F894A895809160008861DC
:1015D00080936000109260000FBE8F910F900FBE3D
:1015E0000F901F9018951F920F920FB60F92112413
:1015F0002F933F934F935F936F937F938F939F931B
:10160000AF93BF93CF93DF93EF93FF93809102004B
:1016100090910300049709F0DEC020911B0030E098
:10162000F901E458FF4F8491F901E255FF4FD4913D
:10163000F901E656FF4FC491CC2379F081110E9445
:10164000F901EC2FF0E0EE0FFF1FE057FF4FA591DF
:10165000B491EC91ED2381E009F480E08170209158
:101660001E00982F9227821719F083B18F5F83B9DC
:1016700082B18917F1F184B12DE1803508F42BE0B6
:1016800084B1820F84B992B984B1803A08F46EC0F3
:1016900086B197B19695879597B986B983B185300C
:1016A00028F086B197B1986097B986B984B1805A0D
:1016B00084B913B885B1882309F482C088B18F5FDB
:1016C00088B98C3008F452C086B197B1982F9F73B7
:1016D000892F86958695887028E0280F281769F04D
:1016E000E82FF0E0E25FFE4F3081931739F08F5F13
:1016F000F5CF84B18C5E84B9C7CF80E090E1899F3B
:101700009001112486B197B136E0969587953A9568
:10171000E1F7482F9595879595958795887098E07E
:10172000980F981749F0E82FF0E0E25FFE4F5081E4
:10173000451719F08F5FF5CF80E0822B90916D00F7
:10174000911127C080936C0090916C00973020F02D
:1017500090916C009434E8F015B88091100090914D
:10176000110001969093110080931000FF91EF916A
:10177000DF91CF91BF91AF919F918F917F916F91A9
:101780005F914F913F912F910F900FBE0F901F903F
:101790001895E0916D0091E09E0F90936D00F0E040
:1017A00081A790916D0080916C00981738F015B862
:1017B00081E080B990E080E00E94EF0318B8D6CFB6
:1017C00086B197B188339B4089F681E085B918B816
:1017D00010926D00CBCF809102009091030003978F
:1017E00029F68091700091E0980F9093700081111C
:1017F00013C0E0916E008091FF00E817A8F090E020
:1018000080E00E94EF0380911400909115000196F2
:10181000909315008093140080917000883008F434
:10182000A5CF10927000A2CFF0E0EF58FF4F60817B
:1018300070E080916F0091E0980F90936F0002C06C
:10184000759567958A95E2F7617080911C000E94FA
:10185000220280916F008630F8F210926F00809122
:101860006E008F5F80936E00D7CFCF93DF93EBEC4A
:10187000F1E01382128288EE93E0A0E0B0E084836E
:101880009583A683B78382E291E09183808385EC80
:1018900090E09587848784EC90E09787868780EC3A
:1018A00090E0918B808B81EC90E0938B828B82EC2B
:1018B00090E0958B848B86EC90E0978B868B118ED5
:1018C000128E138E148EAEEAB2E013961C921E9204
:1018D000129715961C921E92149717961C921E92A0
:1018E000169784E391E011969C938E9380E5189669
:1018F0008C93189719961C921997E8E6F2E01682D5
:10190000178210861186128613861486158616860F
:101910001786108A118A128A138A148A158AC2E0DD
:10192000D3E085E08D838BE08E83E3EBF0E0E49100
:10193000EF83EFE9F0E0E491E88740E85EE360E000
:1019400070E04D875E876F87788BE8EFF2E040E0CC
:1019500050E060E87FEB408351836283738381E0D2
:1019600090E0918780874483558366837783E8EB93
:10197000F2E0138212828FEF84838287838714863A
:101980001586118A108A138A128A158A148A108E73
:10199000178AB28FA18F84E0838F8EE491E09183C8
:1019A000808317AE8CE0848F83E0858FDF91CF91A9
:1019B0000895789484B5826084BD84B5816084BDC7
:1019C00085B5826085BD85B5816085BD80916E00DD
:1019D000816080936E00109281008091810082600E
:1019E000809381008091810081608093810080914B
:1019F00080008160809380008091B100846080933A
:101A0000B1008091B00081608093B00080917A0035
:101A1000846080937A0080917A00826080937A005B
:101A200080917A00816080937A0080917A0080684A
:101A300080937A001092C1001092AA021092AB0219
:101A40001092AC021092AD0210926A0210926B02D8
:101A500010926C0210926D020E94D9026B017C01FF
:101A60004B015C0128EB820E2BE0921EA11CB11CE5
:101A70000E94D9026C157D058E059F0528F08616FB
:101A80009706A806B906A0F768EE73E080E090E03C
:101A90000E94A6020E948C000E94D90260936A02F2
:101AA00070936B0280936C0290936D028AE891E0D0
:101AB0000E949F070E94D9026B017C014B015C01CF
:101AC0003AE0830E911CA11CB11C0E94D9026C1536
:101AD0007D058E059F0528F086169706A806B9068F
:101AE000A0F781E080937E020E94D90260936A028F
:101AF00070936B0280936C0290936D028BE991E07E
:101B00000E949F070E948C0062E0809107030E9460
:101B100050020E94D902605D77408109910960936B
:101B20000B0370930C0380930D0390930E0387E3D4
:101B3000809314030E94E502882349F080910803F2
:101B40008B3028F08D3040F085518230A8F160E074
:101B500070E080EC9FE71CC06091030370E090E0B0
:101B600080E00E9454102DEC3CEC4CEC5DE30E94B4
:101B70008F106B017C016091020370E090E080E0C7
:101B80000E9454109B01AC01C701B6010E94B11123
:101B90000E941D126B010E94E502882341F0809192
:101BA00008038C3009F478C1C8F48B3081F160E00F
:101BB00070E080EC9FE753C06091020370910303D3
:101BC00076276727762790E080E00E9452102DEC60
:101BD0003CEC4CEC5DE30E948F10DACF85518230F3
:101BE00030F7C09104036C2F70E0762F66276627CC
:101BF0007F7780910503682B90E080E00E9452106F
:101C00002DEC3CEC4CEC5DE30E948F1061C16091C7
:101C1000040370E090E080E00E9452104B015C01F0
:101C2000C0910503C7FF0AC0AC019B0160E070E0F2
:101C300080E89FEB0E94B0114B015C01CF706C2FCC
:101C400070E090E080E00E9454102DEC3CEC4CECF5
:101C50005DE30E948F10A50194010E94B1110E94C2
:101C60001D12072E000C880B990B0E9454106093D4
:101C7000F8027093F9028093FA029093FB02B60186
:101C8000DD0C880B990B0E9454106093FC0270933A
:101C9000FD028093FE029093FF02C0E0D0E084EF4B
:101CA000882E99249394A12CB12C0E94D902672BE1
:101CB000682B692B09F410C10E94D902C090C7019A
:101CC000D090C801E090C901F090CA016C157D0563
:101CD0008E059F0508F413C1C090C701D090C801BC
:101CE000E090C901F090CA019B01AC012C193D099B
:101CF0004E095F0969017A013AEFC316D104E10484
:101D0000F10408F4F1C06093C7017093C801809397
:101D1000C9019093CA018092760290927702A092B4
:101D20007802B092790210927A0210927B0210929D
:101D30007C0210927D0280916E0290916F02A091C0
:101D40007002B09171028093720290937302A0931B
:101D50007402B09375020E94D90260936E02709370
:101D60006F0280937002909371028BEC91E00E945D
:101D70003C01843611F40E94F0070E94D90260935E
:101D80006A0270936B0280936C0290936D020E94C2
:101D9000D9026B017C0182EA91E00E949F074AE030
:101DA00061E070E080E090E00E94AC0789EA91E099
:101DB0000E949F074AE0C701B6010E94AC078BEA68
:101DC00091E00E949F0780916E0290916F02A09116
:101DD0007002B0917102A7019601281B390B4A0BC2
:101DE0005B0BCA01B9014AE00E94AC078BEA91E0A3
:101DF0000E949F0760916E0270916F028091700245
:101E000090917102C0907202D0907302E0907402BF
:101E1000F09075026C197D098E099F094AE00E94B5
:101E2000AC078DEA91E00E949F070E94D9024AE028
:101E30000E94AC078FEA91E00E949F0786EB91E039
:101E40000E949F070E94D9022B013C017C016B017B
:101E500035E0C30ED11CE11CF11C0E94D9026415AF
:101E600075058605970528F0C616D706E806F90613
:101E7000A0F78BEC91E00E943C01843611F40E94A3
:101E8000F0070E94D90260936E0270936F028093F4
:101E900070029093710228C0C09104036C2F70E00F
:101EA00090E080E00E9452104B015C0160910503BC
:101EB0006F7070E090E080E00E9454102DEC3CECDC
:101EC0004CEC5DE30E948F10A50194010E94B111BA
:101ED000C7FFC5CE9058C3CE0E94D90262307105AB
:101EE0008105910508F0E8CE209709F4DECE0E9426
:101EF0005601882309F4D9CE0E940000D6CE609303
:101F0000C7017093C8018093C9019093CA01E4CEC0
:101F10008F929F92AF92BF92CF92DF92EF92FF92F9
:101F2000CF93DF93EC01688179818A819B81611570
:101F300071058105910521F464E279ED8BE597E067
:101F40002DE133EF41E050E00E946F1149015A0149
:101F50009B01AC01A7EAB1E40E948E116B017C01E8
:101F6000ACEEB4EFA50194010E949C11C60ED71EE1
:101F7000E81EF91EF7FE06C081E0C81AD108E10884
:101F800080E8F80AC882D982EA82FB82C701B601DA
:101F90009F77DF91CF91FF90EF90DF90CF90BF9030
:101FA000AF909F908F9008958F929F92AF92BF9223
:101FB000CF92DF92EF92FF92609104017091050140
:101FC00080910601909107016115710581059105C8
:101FD00021F464E279ED8BE597E02DE133EF41E008
:101FE00050E00E946F1149015A019B01AC01A7EA20
:101FF000B1E40E948E116B017C01ACEEB4EFA5013F
:1020000094010E949C11C60ED71EE81EF91EF7FE11
:1020100006C081E0C81AD108E10880E8F80AC09239
:102020000401D0920501E0920601F0920701C70178
:10203000B6019F77FF90EF90DF90CF90BF90AF9069
:102040009F908F9008956093040170930501809391
:102050000601909307010895FC0188279927E894C9
:1020600021912032E9F3293010F02E30C8F32B32C1
:1020700041F02D3239F4689404C00E944A10820F56
:10208000911D219120532A30C0F31EF49095819523
:102090009F4F08957AE0979F902D879F802D910DF7
:1020A00011240895E89409C097FB3EF4909580951B
:1020B000709561957F4F8F4F9F4F9923A9F0F92F0E
:1020C00096E9BB279395F695879577956795B7958C
:1020D000F111F8CFFAF4BB0F11F460FF1BC06F5F72
:1020E0007F4F8F4F9F4F16C0882311F096E911C084
:1020F000772321F09EE8872F762F05C0662371F0A5
:1021000096E8862F70E060E02AF09A95660F771FB8
:10211000881FDAF7880F9695879597F908950E949A
:10212000A2100C9413110E94051138F00E940C119A
:1021300020F0952311F00C94FC100C940211112442
:102140000C9447110E94241170F3959FC1F3950FD1
:1021500050E0551F629FF001729FBB27F00DB11D2B
:10216000639FAA27F00DB11DAA1F649F6627B00DBB
:10217000A11D661F829F2227B00DA11D621F739FA4
:10218000B00DA11D621F839FA00D611D221F749FB2
:102190003327A00D611D231F849F600D211D822FF9
:1021A000762F6A2F11249F5750409AF0F1F0882320
:1021B0004AF0EE0FFF1FBB1F661F771F881F91504D
:1021C0005040A9F79E3F510580F00C94FC100C94F0
:1021D00047115F3FE4F3983ED4F386957795679572
:1021E000B795F795E7959F5FC1F7FE2B880F911D77
:1021F0009695879597F9089597F99F6780E870E01D
:1022000060E008959FEF80EC089500240A9416166C
:10221000170618060906089500240A9412161306D4
:10222000140605060895092E0394000C11F4882362
:1022300052F0BB0F40F4BF2B11F460FF04C06F5F7E
:102240007F4F8F4F9F4F089557FD9058440F551F54
:1022500059F05F3F71F04795880F97FB991F61F028
:102260009F3F79F087950895121613061406551F9F
:10227000F2CF4695F1DF08C0161617061806991F0B
:10228000F1CF86957105610508940895E894BB2700
:1022900066277727CB0197F90895A1E21A2EAA1B8A
:1022A000BB1BFD010DC0AA1FBB1FEE1FFF1FA21706
:1022B000B307E407F50720F0A21BB30BE40BF50B03
:1022C000661F771F881F991F1A9469F7609570958C
:1022D000809590959B01AC01BD01CF010895052E1D
:1022E00097FB1EF400940E94861157FD07D00E94B0
:1022F0004D1107FC03D04EF40C9486115095409577
:10230000309521953F4F4F4F5F4F089590958095A1
:10231000709561957F4F8F4F9F4F08950E94A11137
:10232000A59F900DB49F900DA49F800D911D112429
:102330000895B7FF0C948E110E948E11821B930B8F
:102340000895A29FB001B39FC001A39F700D811D8E
:102350001124911DB29F700D811D1124911D0895AE
:102360005058BB27AA270E94C8110C9413110E9431
:10237000051138F00E940C1120F039F49F3F19F438
:1023800026F40C9402110EF4E095E7FB0C94FC107B
:10239000E92F0E94241158F3BA17620773078407C4
:1023A000950720F079F4A6F50C9446110EF4E0950B
:1023B0000B2EBA2FA02D0B01B90190010C01CA01FF
:1023C000A0011124FF27591B99F0593F50F4503EAA
:1023D00068F11A16F040A22F232F342F4427585F9C
:1023E000F3CF469537952795A795F0405395C9F7B4
:1023F0007EF41F16BA0B620B730B840BBAF091506C
:10240000A1F0FF0FBB1F661F771F881FC2F70EC00A
:10241000BA0F621F731F841F48F4879577956795DD
:10242000B795F7959E3F08F0B0CF9395880F08F0C9
:102430009927EE0F9795879508950E942412689426
:10244000B1110C94471108950E942C1188F09F57E8
:1024500098F0B92F9927B751B0F0E1F0660F771FC8
:10246000881F991F1AF0BA95C9F714C0B13091F0BE
:102470000E944611B1E008950C944611672F782F01
:102480008827B85F39F0B93FCCF386957795679583
:10249000B395D9F73EF490958095709561957F4FEF
:1024A0008F4F9F4F0895EE0FFF1F0590F491E02D81
:1024B00009940F931F93CF93DF938230910510F40B
:1024C00082E090E0E0911703F091180330E020E003
:1024D000B0E0A0E0309799F42115310509F44AC025
:1024E000281B390B24303105D8F58A819B81611571
:1024F000710589F1FB0193838283FE0111C0408144
:1025000051810281138148175907E0F04817590794
:1025100099F4109761F012960C93129713961C93EE
:102520003296CF01DF91CF911F910F9108950093C3
:10253000170310931803F4CF2115310551F04217FA
:10254000530738F0A901DB019A01BD01DF01F80151
:10255000C1CFEF01F9CF9093180380931703CDCF2C
:10256000FE01E20FF31F81939193225031093983C9
:102570002883D7CF2091150330911603232B41F4E4
:1025800020910A0130910B0130931603209315031B
:1025900020910801309109012115310541F42DB731
:1025A0003EB740910C0150910D01241B350BE09179
:1025B0001503F0911603E217F307A0F42E1B3F0B4F
:1025C0002817390778F0AC014E5F5F4F24173507A5
:1025D00048F04E0F5F1F50931603409315038193ED
:1025E00091939FCFF0E0E0E09CCFCF93DF930097F3
:1025F000E9F0FC01329713821282A0911703B09187
:102600001803ED0130E020E01097A1F42081318122
:10261000820F931F20911503309116032817390755
:1026200009F061C0F0931603E0931503DF91CF9199
:102630000895EA01CE17DF07E8F54A815B819E0124
:1026400041155105B1F7E901FB83EA83499159919D
:10265000C40FD51FEC17FD0761F4808191810296AC
:10266000840F951FE90199838883828193819B83DD
:102670008A83F0E0E0E012968D919C911397009789
:10268000B9F52D913C911197CD010296820F931FC0
:1026900020911503309116032817390739F6309722
:1026A00051F51092180310921703B0931603A093DC
:1026B0001503BCCFD383C28340815181840F951F02
:1026C000C817D90761F44E5F5F4F88819981480F21
:1026D000591F518340838A819B8193838283211573
:1026E000310509F0B0CFF0931803E09317039ECFA4
:1026F000FD01DC01C0CF13821282D7CF81E090E0D0
:10270000F8940C948C13FB01DC0102C001900D9233
:0C27100041505040D8F70895F894FFCFD6
:10271C00EB03EB03010000000000190380000D0E19
:10272C00131516191A1C232526292A2C32340000BD
:10273C0000008C01EC001901D9014A0128013C016F
:10274C0000000000D306CF06CB060409B706E2064C
:10275C00DE06DA069A0689066F0600000000EC0316
:10276C004008F105EF0442087A08ED038E07940542
:10277C0024075B079809F4061E071B0718071507A3
:10278C000E0721070B07080705070207FE06FA06C6
:10279C00F6064B04F006EC06E806564D4450565F20
:1027AC00317C315F564D4450560A00564D445052C0
:1027BC005F00564D4450455F003A323A007C005F52
:0A27CC00564D445045000D0A000070
:00000001FF
