:100000000C941D010C944E010C944E010C944E0165
:100010000C944E010C944E010C944E010C944E0124
:100020000C944E010C944E010C944E010C944E0114
:100030000C944E010C944E010C944E010C944E0104
:100040000C944E010C944E010C944E010C944E01F4
:100050000C944E010C944E010C944E010C949D0492
:100060000C944E010C9467040C943D040C944E01C6
:100070000C944E010C944E010C944E010C944E01C4
:100080000C944E010C944E010C944E010C944E01B4
:100090000C944E010C944E010C944E010C944E01A4
:1000A0000C944E010C944E010C944E010C944E0194
:1000B0000C944E010C944E010C944E010C944E0184
:1000C0000C944E010C944E010C944E010C944E0174
:1000D0000C944E010C944E010C944E010C944E0164
:1000E0000C944E010C9448030C9450010C94330270
:1000F0000C9483030C9457030C944C030C946703E7
:100100000C94AE010C94F3030C946F030C948C01CB
:100110000C9454030C94E7040C9479030C94A00100
:100120000C941A030C947D030C9450030C94150347
:100130000C9475030C945D030C9487030C947D015F
:100140000C946B030C94E6010C94610300002200F4
:10015000250028002B002E00310034000201000091
:10016000050108010B010505050507050808080834
:10017000020202020A0A080804040404010101013F
:10018000010101010303030303030303040707073A
:100190000C0C0C0C0C0C0C0C0202020206060606DF
:1001A000060606060B0B0B0B0B0B0B0B01021020AC
:1001B000200808102040102040800201020108049D
:1001C0000201010204081020408080402010080431
:1001D000020180040201804020100804020108048A
:1001E00002010102040810204080010204081020CE
:1001F000408000000A0B02090C0D0E0807030401E1
:1002000000000000000000000000000000000000EE
:1002100000000000000000000000000000001211BB
:1002200010000000000000000000000000000000BE
:100230000000000000000000E70411241FBECFEF03
:10024000D1E2DEBFCDBF00E00CBF23E0A8E4B2E006
:1002500001C01D92AC35B207E1F712E0A0E0B2E0B8
:10026000EEEFFFE000E00BBF02C007900D92A83454
:10027000B107D9F711E0CDE1D1E000E006C0219748
:100280000109802FFE010E94F507CC31D10780E0E3
:100290000807A9F70E9458050C94FD070C9400006C
:1002A000AF92BF92CF92DF92EF92FF920F931F9384
:1002B000CF93DF936C017B018B01040F151FEB01C2
:1002C0005E01AE18BF08C017D10759F06991D60179
:1002D000ED91FC910190F081E02DC6011995892BDB
:1002E00079F7C501DF91CF911F910F91FF90EF90AA
:1002F000DF90CF90BF90AF900895FC01538D448D57
:10030000252F30E0842F90E0821B930B541710F0C0
:10031000CF96089501970895FC01918D828D9817CD
:1003200061F0A28DAE0FBF2FB11D5D968C91928DA5
:100330009F5F9F73928F90E008958FEF9FEF0895D6
:10034000FC01918D828D981731F0828DE80FF11D9F
:10035000858D90E008958FEF9FEF0895FC01918DBA
:10036000228D892F90E0805C9F4F821B91098F73B3
:100370009927089585E592E00E94AE0121E0892B3E
:1003800009F420E0822F0895FC01A48DA80FB92F55
:10039000B11DA35ABF4F2C91848D90E001968F73AD
:1003A0009927848FA689B7892C93A089B1898C91CC
:1003B000837080648C93938D848D981306C002881B
:1003C000F389E02D80818F7D80830895EF92FF92E5
:1003D0000F931F93CF93DF93EC0181E0888F9B8D68
:1003E0008C8D98131AC0E889F989808185FF15C022
:1003F0009FB7F894EE89FF896083E889F989808145
:100400008370806480839FBF81E090E0DF91CF9113
:100410001F910F91FF90EF900895F62E0B8D10E035
:100420000F5F1F4F0F731127E02E8C8D8E110CC0A4
:100430000FB607FCFACFE889F989808185FFF5CFEF
:10044000CE010E94C401F1CFEB8DEC0FFD2FF11D09
:10045000E35AFF4FF0829FB7F8940B8FEA89FB892C
:1004600080818062CFCFCF93DF93EC01888D88238A
:10047000B9F0AA89BB89E889F9898C9185FD03C007
:10048000808186FD0DC00FB607FCF7CF8C9185FFEC
:10049000F2CF808185FFEDCFCE010E94C401E9CF6C
:1004A000DF91CF91089580E090E0892B29F00E94A0
:1004B000BA0181110E94000080E090E0892B49F090
:1004C00080E090E0892B29F00E94000081110E94B9
:1004D000000080E090E0892B49F080E090E0892BDB
:1004E00029F00E94000081110E94000080E090E04D
:1004F000892B49F080E090E0892B29F00E940000D0
:1005000081110C94000008953FB7F89480914D023A
:1005100090914E02A0914F02B091500226B5A89B37
:1005200005C02F3F19F00196A11DB11D3FBFBA2F85
:10053000A92F982F8827BC01CD01620F711D811D45
:10054000911D42E0660F771F881F991F4A95D1F7CA
:1005500008952FB7F8946091490270914A028091F2
:100560004B0290914C022FBF0895EF92FF920F9390
:100570001F93CF93DF9300D01F92CDB7DEB785E5F1
:1005800092E00E948C0185E592E00E948C018E0130
:100590000F5F1F4F78018A3341F0F80181938F017B
:1005A00085E592E00E948C01F6CFC7010E94AD075D
:1005B0008C0185E592E00E948C01282F2053330B9B
:1005C000A9012230310508F046C098013327F9010E
:1005D000EE50FE4F9491F901E455FE4F64912A5973
:1005E0003E4FF9012491222309F435C0992311F1DA
:1005F00091509231F8F4E92FF0E08827ED5FFC4F3D
:100600008F4F0C94F50750035403150348034C0314
:100610001A0357035D03610367036B036F037503DD
:1006200079031A037D0383038703809180008F770A
:1006300080938000E22FF0E0EE0FFF1FE45BFE4F9F
:10064000A591B4918FB7F894EC91411164C0609575
:100650006E236C938FBF85E592E00E948C018A30F7
:1006600011F08D30C1F785E592E00E94A0018A303B
:1006700009F053C085E592E00F900F900F900F9016
:10068000DF91CF911F910F91FF90EF900C948C010F
:10069000809180008F7DCCCF80918000877FC8CFF4
:1006A00084B58F7784BDC6CF84B58F7DFBCF809115
:1006B000B0008F778093B000BDCF8091B0008F7D68
:1006C000F9CF809190008F7780939000B3CF809185
:1006D00090008F7DF9CF80919000877FF5CF80913A
:1006E000A0008F778093A000A5CF8091A0008F7D80
:1006F000F9CF8091A000877FF5CF809120018F777F
:100700008093200197CF809120018F7DF9CF809138
:100710002001877FF5CF6E2B9CCF0F900F900F900D
:100720000F90DF91CF911F910F91FF90EF9008955F
:10073000FB0101900020E9F73197AF01461B570BF1
:10074000DC01ED91FC910280F381E02D19948F92F0
:100750009F92AF92BF92EF92FF920F931F93CF930E
:10076000DF93CDB7DEB7A1970FB6F894DEBF0FBE0B
:10077000CDBF7C01FA01CB0119A2223008F42AE096
:100780008E010F5D1F4F822E912CB12CA12CBF0129
:10079000A50194010E94D307F901CA016A300CF542
:1007A000605DD8016E938D01232B242B252B79F7C7
:1007B00090E080E0109721F0BD01C7010E949803EE
:1007C000A1960FB6F894DEBF0FBECDBFDF91CF91DB
:1007D0001F910F91FF90EF90BF90AF909F908F90DF
:1007E0000895695CDECF8F929F92AF92BF92CF92B5
:1007F000DF92EF92FF920F931F93CF93DF937C01D1
:10080000EB016C0182E0C80ED11C4701E5E08E0EC1
:10081000911C10E000E0F60141916F0150E070E0A2
:1008200060E02AE0CE010E94A7035C01E881F98123
:100830000190F081E02D6EE2CE0119958A0D9B1D8D
:10084000080F191FC814D90431F7F701458150E08A
:1008500070E060E02AE0CE010E94A703800F911FA4
:10086000DF91CF911F910F91FF90EF90DF90CF908C
:10087000BF90AF909F908F9008951F920F920FB6E8
:100880000F9211240BB60F922F933F934F935F93C8
:100890006F937F938F939F93AF93BF93EF93FF9348
:1008A00085E592E00E94C401FF91EF91BF91AF9165
:1008B0009F918F917F916F915F914F913F912F9178
:1008C0000F900BBE0F900FBE0F901F9018951F92A8
:1008D0000F920FB60F9211240BB60F922F938F9396
:1008E0009F93EF93FF93E0916502F0916602808100
:1008F000E0916B02F0916C0282FD1DC090818091AD
:100900006E028F5F8F7320916F02821741F0E0912A
:100910006E02F0E0EB5AFD4F958F80936E02FF91CF
:10092000EF919F918F912F910F900BBE0F900FBE63
:100930000F901F9018958081F2CF1F920F920FB6E3
:100940000F9211242F933F938F939F93AF93BF9355
:100950008091490290914A02A0914B02B0914C02C1
:100960003091480223E0230F2D3758F50196A11D41
:10097000B11D209348028093490290934A02A093AC
:100980004B02B0934C0280914D0290914E02A09187
:100990004F02B09150020196A11DB11D80934D02EE
:1009A00090934E02A0934F02B0935002BF91AF912B
:1009B0009F918F913F912F910F900FBE0F901F909D
:1009C000189526E8230F0296A11DB11DD2CFE5E5AB
:1009D000F2E01382128288EE93E0A0E0B0E084831C
:1009E0009583A683B78384E092E09183808385EC2E
:1009F00090E09587848784EC90E09787868780ECE9
:100A000090E0918B808B81EC90E0938B828B82ECD9
:100A100090E0958B848B86EC90E0978B868B118E83
:100A2000128E138E148EE2EFF2E086E192E0918353
:100A300080831282138214821582E8EFF2E09183A0
:100A400080831282138214821582EEEFF2E091838A
:100A500080831282138214821582E4E0F3E0918392
:100A600080831282138214821582EAE0F3E091837C
:100A700080831282138214821582E0E1F3E01682F1
:100A8000178210861186128613861486158616869E
:100A90001786108A118A128A138A148A158AE6E543
:100AA000F3E0918380831282138214821582089569
:100AB000789484B5826084BD84B5816084BD85B539
:100AC000826085BD85B5816085BD80916E00816045
:100AD00080936E00109281008091810082608093EB
:100AE00081008091810081608093810080918000ED
:100AF0008160809380008091B10084608093B10018
:100B00008091B00081608093B000809191008260FC
:100B100080939100809191008160809391008091F9
:100B200090008160809390008091A100826080930A
:100B3000A1008091A10081608093A1008091A0001C
:100B400081608093A00080912101826080932101C7
:100B50008091210181608093210180912001816039
:100B60008093200180917A00846080937A00809144
:100B70007A00826080937A0080917A00816080930D
:100B80007A0080917A00806880937A001092C10088
:100B90001092520310925303109254031092550373
:100BA0001092120310921303109214031092150363
:100BB0000E94A9026B017C014B015C0128EB820EB3
:100BC0002BE0921EA11CB11C0E94A9026C157D0590
:100BD0008E059F0528F086169706A806B906A0F789
:100BE0000E9484024B015C0198EEC92E93E0D92E3D
:100BF000E12CF12C0E948402681979098A099B0969
:100C0000683E734081059105A8F331E0C31AD1080D
:100C1000E108F10848EE840E43E0941EA11CB11CCB
:100C2000C114D104E104F10429F7E0916502F091C7
:100C3000660282E08083E0916102F091620210829C
:100C4000E0916302F091640280E1808310926D0272
:100C5000E0916902F0916A0286E08083E091670288
:100C6000F0916802808180618083E0916702F09159
:100C70006802808188608083E0916702F091680259
:100C8000808180688083E0916702F09168028081B2
:100C90008F7D80830E94A9026093120370931303D7
:100CA000809314039093150368E172E085E592E068
:100CB0000E9498030E94A9026B017C014B015C0118
:100CC0008AE0880E911CA11CB11C0E94A9026C151F
:100CD0007D058E059F0528F086169706A806B9069D
:100CE000A0F781E0809326030E94A902609312037B
:100CF00070931303809314039093150369E272E0D9
:100D000085E592E00E94980384EF882E99249394BD
:100D1000A12CB12C0E94A902672B682B692B09F426
:100D200008C10E94A902C0905102D0905202E090E6
:100D30005302F09054026C157D058E059F0508F452
:100D400003C1C0905102D0905202E0905302F09043
:100D500054029B01AC012C193D094E095F09690140
:100D60007A013AEFC316D104E104F10408F4E9C0B2
:100D700060935102709352028093530290935402F5
:100D800080921E0390921F03A0922003B092210331
:100D90001092220310922303109224031092250331
:100DA0008091160390911703A0911803B091190335
:100DB00080931A0390931B03A0931C03B0931D030D
:100DC0000E94A9026093160370931703809318037F
:100DD0009093190385E592E00E94A001843611F4F6
:100DE0000E94B5020E94A90260931203709313033C
:100DF00080931403909315030E94A9026B017C0158
:100E000060E372E085E592E00E9498032AE041E009
:100E100050E060E070E085E592E00E94A70367E3A0
:100E200072E085E592E00E9498032AE0B701A601EE
:100E300085E592E00E94A70369E372E085E592E010
:100E40000E9498038091160390911703A0911803B4
:100E5000B0911903B701A601481B590B6A0B7B0B14
:100E60002AE085E592E00E94A70369E372E085E548
:100E700092E00E94980340911603509117036091ED
:100E800018037091190380911A0390911B03A0918C
:100E90001C03B0911D03481B590B6A0B7B0B2AE006
:100EA00085E592E00E94A7036BE372E085E592E09E
:100EB0000E9498030E94A902AB01BC012AE085E5CB
:100EC00092E00E94A7036DE372E085E592E00E9444
:100ED000980364E472E085E592E00E9498030E9422
:100EE000A9026B017C012B013C0145E0440E511C21
:100EF000611C711C0E94A9026C157D058E059F0561
:100F000028F04616570668067906A0F785E592E0B0
:100F10000E94A001843611F40E94B5020E94A90229
:100F2000609316037093170380931803909319032B
:100F300008C00E94A902623071058105910508F080
:100F4000F0CE0E945302E6CE60935102709352029B
:100F50008093530290935402F4CEFC018827992782
:100F6000E89421912032E9F3293010F02E30C8F3B3
:100F70002B3241F02D3239F4689404C00E94CB0723
:100F8000820F911D219120532A30C0F31EF49095B9
:100F900081959F4F08957AE0979F902D879F802D90
:100FA000910D11240895A1E21A2EAA1BBB1BFD016D
:100FB0000DC0AA1FBB1FEE1FFF1FA217B307E40738
:100FC000F50720F0A21BB30BE40BF50B661F771F90
:100FD000881F991F1A9469F7609570958095909570
:100FE0009B01AC01BD01CF010895EE0FFF1F881FCB
:0E0FF0008BBF0790F691E02D1994F894FFCF77
:100FFE0000000000E60150017D013302AE018C01BC
:10100E00A00100000000F303564D4450565F317CA2
:10101E00315F564D4450560A00564D4450525F00B3
:10102E00564D4450455F003A323A007C005F564DB3
:08103E00445045000D0A0000BA
:00000001FF
